{
  "contractName": "Coin",
  "abi": [
    {
      "constant": true,
      "inputs": [],
      "name": "name",
      "outputs": [
        {
          "name": "",
          "type": "string"
        }
      ],
      "payable": false,
      "stateMutability": "view",
      "type": "function"
    },
    {
      "constant": false,
      "inputs": [
        {
          "name": "_spender",
          "type": "address"
        },
        {
          "name": "_value",
          "type": "uint256"
        }
      ],
      "name": "approve",
      "outputs": [
        {
          "name": "success",
          "type": "bool"
        }
      ],
      "payable": false,
      "stateMutability": "nonpayable",
      "type": "function"
    },
    {
      "constant": true,
      "inputs": [],
      "name": "totalSupply",
      "outputs": [
        {
          "name": "",
          "type": "uint256"
        }
      ],
      "payable": false,
      "stateMutability": "view",
      "type": "function"
    },
    {
      "constant": false,
      "inputs": [
        {
          "name": "_from",
          "type": "address"
        },
        {
          "name": "_to",
          "type": "address"
        },
        {
          "name": "_value",
          "type": "uint256"
        }
      ],
      "name": "transferFrom",
      "outputs": [
        {
          "name": "success",
          "type": "bool"
        }
      ],
      "payable": false,
      "stateMutability": "nonpayable",
      "type": "function"
    },
    {
      "constant": true,
      "inputs": [],
      "name": "decimals",
      "outputs": [
        {
          "name": "",
          "type": "uint8"
        }
      ],
      "payable": false,
      "stateMutability": "view",
      "type": "function"
    },
    {
      "constant": true,
      "inputs": [],
      "name": "StatisticsTree",
      "outputs": [
        {
          "name": "",
          "type": "address"
        }
      ],
      "payable": false,
      "stateMutability": "view",
      "type": "function"
    },
    {
      "constant": true,
      "inputs": [],
      "name": "version",
      "outputs": [
        {
          "name": "",
          "type": "string"
        }
      ],
      "payable": false,
      "stateMutability": "view",
      "type": "function"
    },
    {
      "constant": true,
      "inputs": [
        {
          "name": "_owner",
          "type": "address"
        }
      ],
      "name": "balanceOf",
      "outputs": [
        {
          "name": "balance",
          "type": "uint256"
        }
      ],
      "payable": false,
      "stateMutability": "view",
      "type": "function"
    },
    {
      "constant": true,
      "inputs": [],
      "name": "symbol",
      "outputs": [
        {
          "name": "",
          "type": "string"
        }
      ],
      "payable": false,
      "stateMutability": "view",
      "type": "function"
    },
    {
      "constant": false,
      "inputs": [
        {
          "name": "_to",
          "type": "address"
        },
        {
          "name": "_value",
          "type": "uint256"
        }
      ],
      "name": "transfer",
      "outputs": [
        {
          "name": "success",
          "type": "bool"
        }
      ],
      "payable": false,
      "stateMutability": "nonpayable",
      "type": "function"
    },
    {
      "constant": true,
      "inputs": [],
      "name": "enddate",
      "outputs": [
        {
          "name": "",
          "type": "uint256"
        }
      ],
      "payable": false,
      "stateMutability": "view",
      "type": "function"
    },
    {
      "constant": false,
      "inputs": [
        {
          "name": "_spender",
          "type": "address"
        },
        {
          "name": "_value",
          "type": "uint256"
        },
        {
          "name": "_extraData",
          "type": "bytes"
        }
      ],
      "name": "approveAndCall",
      "outputs": [
        {
          "name": "success",
          "type": "bool"
        }
      ],
      "payable": false,
      "stateMutability": "nonpayable",
      "type": "function"
    },
    {
      "constant": true,
      "inputs": [],
      "name": "startdate",
      "outputs": [
        {
          "name": "",
          "type": "uint256"
        }
      ],
      "payable": false,
      "stateMutability": "view",
      "type": "function"
    },
    {
      "constant": true,
      "inputs": [
        {
          "name": "_owner",
          "type": "address"
        },
        {
          "name": "_spender",
          "type": "address"
        }
      ],
      "name": "allowance",
      "outputs": [
        {
          "name": "remaining",
          "type": "uint256"
        }
      ],
      "payable": false,
      "stateMutability": "view",
      "type": "function"
    },
    {
      "inputs": [
        {
          "name": "_authorAddress",
          "type": "address"
        },
        {
          "name": "_customershipStake",
          "type": "uint256"
        },
        {
          "name": "_goal",
          "type": "uint256"
        },
        {
          "name": "_eligibleCount",
          "type": "uint256"
        },
        {
          "name": "_initialAmount",
          "type": "uint256"
        },
        {
          "name": "_tokenName",
          "type": "string"
        },
        {
          "name": "_decimalUnits",
          "type": "uint8"
        },
        {
          "name": "_startdate",
          "type": "uint256"
        },
        {
          "name": "_enddate",
          "type": "uint256"
        },
        {
          "name": "_tokenSymbol",
          "type": "string"
        },
        {
          "name": "_weightCoefficient",
          "type": "uint256"
        },
        {
          "name": "_weightCoefficient2",
          "type": "uint256"
        }
      ],
      "payable": false,
      "stateMutability": "nonpayable",
      "type": "constructor"
    },
    {
      "anonymous": false,
      "inputs": [
        {
          "indexed": false,
          "name": "customer",
          "type": "address"
        },
        {
          "indexed": false,
          "name": "amountPaid",
          "type": "uint256"
        }
      ],
      "name": "BoughtCoin",
      "type": "event"
    },
    {
      "anonymous": false,
      "inputs": [
        {
          "indexed": false,
          "name": "success",
          "type": "bool"
        }
      ],
      "name": "GoalMet",
      "type": "event"
    },
    {
      "anonymous": false,
      "inputs": [],
      "name": "NewQualifyingcustomers",
      "type": "event"
    },
    {
      "anonymous": false,
      "inputs": [
        {
          "indexed": false,
          "name": "customer",
          "type": "address"
        }
      ],
      "name": "CoinRequested",
      "type": "event"
    },
    {
      "anonymous": false,
      "inputs": [
        {
          "indexed": false,
          "name": "customer",
          "type": "address"
        }
      ],
      "name": "LogCoinShipped",
      "type": "event"
    },
    {
      "anonymous": false,
      "inputs": [
        {
          "indexed": false,
          "name": "customer",
          "type": "address"
        }
      ],
      "name": "LogCoinConfirmed",
      "type": "event"
    },
    {
      "anonymous": false,
      "inputs": [
        {
          "indexed": true,
          "name": "_from",
          "type": "address"
        },
        {
          "indexed": true,
          "name": "_to",
          "type": "address"
        },
        {
          "indexed": false,
          "name": "_value",
          "type": "uint256"
        }
      ],
      "name": "Transfer",
      "type": "event"
    },
    {
      "anonymous": false,
      "inputs": [
        {
          "indexed": true,
          "name": "_owner",
          "type": "address"
        },
        {
          "indexed": true,
          "name": "_spender",
          "type": "address"
        },
        {
          "indexed": false,
          "name": "_value",
          "type": "uint256"
        }
      ],
      "name": "Approval",
      "type": "event"
    },
    {
      "constant": true,
      "inputs": [],
      "name": "goalReached",
      "outputs": [
        {
          "name": "goalMet",
          "type": "bool"
        }
      ],
      "payable": false,
      "stateMutability": "view",
      "type": "function"
    },
    {
      "constant": false,
      "inputs": [],
      "name": "goalFailed",
      "outputs": [
        {
          "name": "goalFailed",
          "type": "bool"
        }
      ],
      "payable": false,
      "stateMutability": "nonpayable",
      "type": "function"
    },
    {
      "constant": false,
      "inputs": [
        {
          "name": "a",
          "type": "address"
        }
      ],
      "name": "setTreeAddress",
      "outputs": [],
      "payable": false,
      "stateMutability": "nonpayable",
      "type": "function"
    },
    {
      "constant": false,
      "inputs": [],
      "name": "buyCoin",
      "outputs": [
        {
          "name": "success",
          "type": "bool"
        }
      ],
      "payable": true,
      "stateMutability": "payable",
      "type": "function"
    },
    {
      "constant": true,
      "inputs": [
        {
          "name": "a",
          "type": "address"
        }
      ],
      "name": "getPoints",
      "outputs": [
        {
          "name": "",
          "type": "uint256"
        }
      ],
      "payable": false,
      "stateMutability": "view",
      "type": "function"
    },
    {
      "constant": false,
      "inputs": [
        {
          "name": "value",
          "type": "uint256"
        }
      ],
      "name": "weekSaleSum",
      "outputs": [],
      "payable": false,
      "stateMutability": "nonpayable",
      "type": "function"
    },
    {
      "constant": false,
      "inputs": [
        {
          "name": "week",
          "type": "uint256"
        }
      ],
      "name": "ETA",
      "outputs": [
        {
          "name": "",
          "type": "uint256"
        }
      ],
      "payable": false,
      "stateMutability": "nonpayable",
      "type": "function"
    },
    {
      "constant": false,
      "inputs": [],
      "name": "setFirstEligible",
      "outputs": [
        {
          "name": "success",
          "type": "bool"
        }
      ],
      "payable": false,
      "stateMutability": "nonpayable",
      "type": "function"
    },
    {
      "constant": false,
      "inputs": [
        {
          "name": "value",
          "type": "uint256"
        }
      ],
      "name": "addEligible",
      "outputs": [],
      "payable": false,
      "stateMutability": "nonpayable",
      "type": "function"
    },
    {
      "constant": false,
      "inputs": [],
      "name": "withdrawCapital",
      "outputs": [],
      "payable": false,
      "stateMutability": "nonpayable",
      "type": "function"
    },
    {
      "constant": true,
      "inputs": [
        {
          "name": "w",
          "type": "uint256"
        },
        {
          "name": "w1",
          "type": "uint256"
        }
      ],
      "name": "CalculateWeight",
      "outputs": [
        {
          "name": "",
          "type": "int256"
        },
        {
          "name": "",
          "type": "uint256"
        },
        {
          "name": "",
          "type": "uint256"
        }
      ],
      "payable": false,
      "stateMutability": "view",
      "type": "function"
    },
    {
      "constant": false,
      "inputs": [],
      "name": "claimCoins",
      "outputs": [],
      "payable": false,
      "stateMutability": "nonpayable",
      "type": "function"
    },
    {
      "constant": false,
      "inputs": [
        {
          "name": "customerAddress",
          "type": "address"
        }
      ],
      "name": "requestDelivery",
      "outputs": [
        {
          "name": "success",
          "type": "bool"
        }
      ],
      "payable": false,
      "stateMutability": "nonpayable",
      "type": "function"
    },
    {
      "constant": false,
      "inputs": [
        {
          "name": "customer",
          "type": "address"
        }
      ],
      "name": "markShipped",
      "outputs": [
        {
          "name": "success",
          "type": "bool"
        }
      ],
      "payable": false,
      "stateMutability": "nonpayable",
      "type": "function"
    },
    {
      "constant": false,
      "inputs": [
        {
          "name": "customer",
          "type": "address"
        }
      ],
      "name": "confirmDelivery",
      "outputs": [
        {
          "name": "success",
          "type": "bool"
        }
      ],
      "payable": false,
      "stateMutability": "nonpayable",
      "type": "function"
    }
  ],
  "bytecode": "0x60806040526040805190810160405280600481526020017f48302e3100000000000000000000000000000000000000000000000000000000815250600690805190602001906200005192919062000264565b503480156200005f57600080fd5b506040516200296038038062002960833981018060405281019080805190602001909291908051906020019092919080519060200190929190805190602001909291908051906020019092919080518201929190602001805190602001909291908051906020019092919080519060200190929190805182019291906020018051906020019092919080519060200190929190505050878787858f84600160008373ffffffffffffffffffffffffffffffffffffffff1673ffffffffffffffffffffffffffffffffffffffff168152602001908152602001600020819055508460008190555083600390805190602001906200015d92919062000264565b5082600460006101000a81548160ff021916908360ff16021790555081600590805190602001906200019192919062000264565b5050505050508b600760006101000a81548173ffffffffffffffffffffffffffffffffffffffff021916908373ffffffffffffffffffffffffffffffffffffffff1602179055508a60088190555089600a8190555088600d819055506000600b8190555084600e8190555083600f81905550816012819055508060138190555033601460006101000a81548173ffffffffffffffffffffffffffffffffffffffff021916908373ffffffffffffffffffffffffffffffffffffffff16021790555050505050505050505050505062000313565b828054600181600116156101000203166002900490600052602060002090601f016020900481019282601f10620002a757805160ff1916838001178555620002d8565b82800160010185558215620002d8579182015b82811115620002d7578251825591602001919060010190620002ba565b5b509050620002e79190620002eb565b5090565b6200031091905b808211156200030c576000816000905550600101620002f2565b5090565b90565b61263d80620003236000396000f300608060405260043610610175576000357c0100000000000000000000000000000000000000000000000000000000900463ffffffff16806306fdde031461017a578063091e9a601461020a578063095ea7b31461022c57806317727a001461029157806318160ddd146102a857806323b872dd146102d3578063244a39af146103585780632f6301a414610387578063313ce567146103b45780633696a817146103e5578063410213e2146104125780634791abe11461046957806354fd4d50146104c45780635b614794146105545780635f5fd2e21461059757806365ab841d146105ae57806370a08231146105dd5780637d3d65221461063457806395d89b41146106635780639f7aee82146106f3578063a9059cbb1461074e578063c588953e146107b3578063cae9ca51146107de578063cc01ca7214610889578063cde9f2ea146108e2578063dd62ed3e1461090d578063ebfdd32d14610984578063ee204abb146109c5578063fc6dc17d14610a1c575b600080fd5b34801561018657600080fd5b5061018f610a77565b6040518080602001828103825283818151815260200191508051906020019080838360005b838110156101cf5780820151818401526020810190506101b4565b50505050905090810190601f1680156101fc5780820380516001836020036101000a031916815260200191505b509250505060405180910390f35b610212610b15565b604051808215151515815260200191505060405180910390f35b34801561023857600080fd5b50610277600480360381019080803573ffffffffffffffffffffffffffffffffffffffff169060200190929190803590602001909291905050506110d9565b604051808215151515815260200191505060405180910390f35b34801561029d57600080fd5b506102a66111cb565b005b3480156102b457600080fd5b506102bd6112b4565b6040518082815260200191505060405180910390f35b3480156102df57600080fd5b5061033e600480360381019080803573ffffffffffffffffffffffffffffffffffffffff169060200190929190803573ffffffffffffffffffffffffffffffffffffffff169060200190929190803590602001909291905050506112ba565b604051808215151515815260200191505060405180910390f35b34801561036457600080fd5b5061036d611526565b604051808215151515815260200191505060405180910390f35b34801561039357600080fd5b506103b260048036038101908080359060200190929190505050611541565b005b3480156103c057600080fd5b506103c96115ff565b604051808260ff1660ff16815260200191505060405180910390f35b3480156103f157600080fd5b5061041060048036038101908080359060200190929190505050611612565b005b34801561041e57600080fd5b5061042761165a565b604051808273ffffffffffffffffffffffffffffffffffffffff1673ffffffffffffffffffffffffffffffffffffffff16815260200191505060405180910390f35b34801561047557600080fd5b506104aa600480360381019080803573ffffffffffffffffffffffffffffffffffffffff169060200190929190505050611680565b604051808215151515815260200191505060405180910390f35b3480156104d057600080fd5b506104d96117c6565b6040518080602001828103825283818151815260200191508051906020019080838360005b838110156105195780820151818401526020810190506104fe565b50505050905090810190601f1680156105465780820380516001836020036101000a031916815260200191505b509250505060405180910390f35b34801561056057600080fd5b50610595600480360381019080803573ffffffffffffffffffffffffffffffffffffffff169060200190929190505050611864565b005b3480156105a357600080fd5b506105ac611904565b005b3480156105ba57600080fd5b506105c3611b4a565b604051808215151515815260200191505060405180910390f35b3480156105e957600080fd5b5061061e600480360381019080803573ffffffffffffffffffffffffffffffffffffffff169060200190929190505050611b85565b6040518082815260200191505060405180910390f35b34801561064057600080fd5b50610649611bce565b604051808215151515815260200191505060405180910390f35b34801561066f57600080fd5b50610678611bdd565b6040518080602001828103825283818151815260200191508051906020019080838360005b838110156106b857808201518184015260208101905061069d565b50505050905090810190601f1680156106e55780820380516001836020036101000a031916815260200191505b509250505060405180910390f35b3480156106ff57600080fd5b50610734600480360381019080803573ffffffffffffffffffffffffffffffffffffffff169060200190929190505050611c7b565b604051808215151515815260200191505060405180910390f35b34801561075a57600080fd5b50610799600480360381019080803573ffffffffffffffffffffffffffffffffffffffff16906020019092919080359060200190929190505050611dc1565b604051808215151515815260200191505060405180910390f35b3480156107bf57600080fd5b506107c8611f1a565b6040518082815260200191505060405180910390f35b3480156107ea57600080fd5b5061086f600480360381019080803573ffffffffffffffffffffffffffffffffffffffff16906020019092919080359060200190929190803590602001908201803590602001908080601f0160208091040260200160405190810160405280939291908181526020018383808284378201915050505050509192919290505050611f20565b604051808215151515815260200191505060405180910390f35b34801561089557600080fd5b506108be60048036038101908080359060200190929190803590602001909291905050506121bd565b60405180848152602001838152602001828152602001935050505060405180910390f35b3480156108ee57600080fd5b506108f7612309565b6040518082815260200191505060405180910390f35b34801561091957600080fd5b5061096e600480360381019080803573ffffffffffffffffffffffffffffffffffffffff169060200190929190803573ffffffffffffffffffffffffffffffffffffffff16906020019092919050505061230f565b6040518082815260200191505060405180910390f35b34801561099057600080fd5b506109af60048036038101908080359060200190929190505050612396565b6040518082815260200191505060405180910390f35b3480156109d157600080fd5b50610a06600480360381019080803573ffffffffffffffffffffffffffffffffffffffff1690602001909291905050506123da565b6040518082815260200191505060405180910390f35b348015610a2857600080fd5b50610a5d600480360381019080803573ffffffffffffffffffffffffffffffffffffffff169060200190929190505050612426565b604051808215151515815260200191505060405180910390f35b60038054600181600116156101000203166002900480601f016020809104026020016040519081016040528092919081815260200182805460018160011615610100020316600290048015610b0d5780601f10610ae257610100808354040283529160200191610b0d565b820191906000526020600020905b815481529060010190602001808311610af057829003601f168201915b505050505081565b6000806000806000600160003373ffffffffffffffffffffffffffffffffffffffff1673ffffffffffffffffffffffffffffffffffffffff168152602001908152602001600020541415610c7857608060405190810160405280600c548152602001600081526020016040805190810160405280600981526020017f416e6f6e796d6f75730000000000000000000000000000000000000000000000815250815260200160006004811115610bc657fe5b815250601c60003373ffffffffffffffffffffffffffffffffffffffff1673ffffffffffffffffffffffffffffffffffffffff16815260200190815260200160002060008201518160000155602082015181600101556040820151816002019080519060200190610c3892919061256c565b5060608201518160030160006101000a81548160ff02191690836004811115610c5d57fe5b0217905550905050600c600081548092919060010191905055505b600e54600f54036402540be400600e54420302811515610c9457fe5b049250600a54600a60095402811515610ca957fe5b046013540283601254020167028f5c28f5c28f60027fffffffffffffffffffffffffffffffffffffffffffffffffffffffffffffffff02915034600160003373ffffffffffffffffffffffffffffffffffffffff1673ffffffffffffffffffffffffffffffffffffffff1681526020019081526020016000206000828254019250508190555068010000000000000000348373__Math__________________________________63e46751e390916040518263ffffffff167c01000000000000000000000000000000000000000000000000000000000281526004018082815260200191505060206040518083038186803b158015610da757600080fd5b505af4158015610dbb573d6000803e3d6000fd5b505050506040513d6020811015610dd157600080fd5b810190808051906020019092919050505002811515610dec57fe5b04905080601c60003373ffffffffffffffffffffffffffffffffffffffff1673ffffffffffffffffffffffffffffffffffffffff16815260200190815260200160002060010160008282540192505081905550600a546009541015610f9257601573__CoinQueueLib2_________________________63595b59d790913384601160009054906101000a900473ffffffffffffffffffffffffffffffffffffffff166040518563ffffffff167c0100000000000000000000000000000000000000000000000000000000028152600401808581526020018473ffffffffffffffffffffffffffffffffffffffff1673ffffffffffffffffffffffffffffffffffffffff1681526020018381526020018273ffffffffffffffffffffffffffffffffffffffff1673ffffffffffffffffffffffffffffffffffffffff16815260200194505050505060206040518083038186803b158015610f4b57600080fd5b505af4158015610f5f573d6000803e3d6000fd5b505050506040513d6020811015610f7557600080fd5b81019080805190602001909291905050501515610f9157600080fd5b5b610f9a611bce565b156110b657601160009054906101000a900473ffffffffffffffffffffffffffffffffffffffff1673ffffffffffffffffffffffffffffffffffffffff1660405180807f536574476f616c52656163686564282900000000000000000000000000000000815250601001905060405180910390207c010000000000000000000000000000000000000000000000000000000090046040518163ffffffff167c01000000000000000000000000000000000000000000000000000000000281526004016000604051808303816000875af192505050151561107957600080fd5b7f1e61fe9a90d23ee89cf23cb1f66c1188b68372e59b6ad3470f3b26b564e966776001604051808215151515815260200191505060405180910390a15b346009600082825401925050819055506110cf34611612565b6001935050505090565b600081600260003373ffffffffffffffffffffffffffffffffffffffff1673ffffffffffffffffffffffffffffffffffffffff16815260200190815260200160002060008573ffffffffffffffffffffffffffffffffffffffff1673ffffffffffffffffffffffffffffffffffffffff168152602001908152602001600020819055508273ffffffffffffffffffffffffffffffffffffffff163373ffffffffffffffffffffffffffffffffffffffff167f8c5be1e5ebec7d5bd14f71427d1e84f3dd0314c0f7b2291e5b200ac8c7c3b925846040518082815260200191505060405180910390a36001905092915050565b6111d3611bce565b80156111e05750600f5442115b15156111eb57600080fd5b600760009054906101000a900473ffffffffffffffffffffffffffffffffffffffff1673ffffffffffffffffffffffffffffffffffffffff163373ffffffffffffffffffffffffffffffffffffffff1614151561124757600080fd5b600760009054906101000a900473ffffffffffffffffffffffffffffffffffffffff1673ffffffffffffffffffffffffffffffffffffffff166108fc6009549081150290604051600060405180830381858888f193505050501580156112b1573d6000803e3d6000fd5b50565b60005481565b600081600160008673ffffffffffffffffffffffffffffffffffffffff1673ffffffffffffffffffffffffffffffffffffffff1681526020019081526020016000205410158015611387575081600260008673ffffffffffffffffffffffffffffffffffffffff1673ffffffffffffffffffffffffffffffffffffffff16815260200190815260200160002060003373ffffffffffffffffffffffffffffffffffffffff1673ffffffffffffffffffffffffffffffffffffffff1681526020019081526020016000205410155b151561139257600080fd5b81600160008573ffffffffffffffffffffffffffffffffffffffff1673ffffffffffffffffffffffffffffffffffffffff1681526020019081526020016000206000828254019250508190555081600160008673ffffffffffffffffffffffffffffffffffffffff1673ffffffffffffffffffffffffffffffffffffffff1681526020019081526020016000206000828254039250508190555081600260008673ffffffffffffffffffffffffffffffffffffffff1673ffffffffffffffffffffffffffffffffffffffff16815260200190815260200160002060003373ffffffffffffffffffffffffffffffffffffffff1673ffffffffffffffffffffffffffffffffffffffff168152602001908152602001600020600082825403925050819055508273ffffffffffffffffffffffffffffffffffffffff168473ffffffffffffffffffffffffffffffffffffffff167fddf252ad1be2c89b69c2b068fc378daa952ba7f163c4a11628f55a4df523b3ef846040518082815260200191505060405180910390a3600190509392505050565b6000600a5460095410801561153c5750600f5442115b905090565b611549611bce565b80156115565750600f5442115b151561156157600080fd5b601160009054906101000a900473ffffffffffffffffffffffffffffffffffffffff1673ffffffffffffffffffffffffffffffffffffffff163373ffffffffffffffffffffffffffffffffffffffff161415156115bd57600080fd5b6115c5611b4a565b15156115d057600080fd5b6001601b600083815260200190815260200160002060006101000a81548160ff02191690831515021790555050565b600460009054906101000a900460ff1681565b6000600762015180600e54420381151561162857fe5b0481151561163257fe5b04905081601d6000838152602001908152602001600020600082825401925050819055505050565b601160009054906101000a900473ffffffffffffffffffffffffffffffffffffffff1681565b60006001600481111561168f57fe5b601c60008473ffffffffffffffffffffffffffffffffffffffff1673ffffffffffffffffffffffffffffffffffffffff16815260200190815260200160002060030160009054906101000a900460ff1660048111156116ea57fe5b1415156116f657600080fd5b6002601c60008473ffffffffffffffffffffffffffffffffffffffff1673ffffffffffffffffffffffffffffffffffffffff16815260200190815260200160002060030160006101000a81548160ff0219169083600481111561175557fe5b02179055507f5da801b6e57bde18d536d5e32ef866b5fdd927d80101ed20524c269550edf1c733604051808273ffffffffffffffffffffffffffffffffffffffff1673ffffffffffffffffffffffffffffffffffffffff16815260200191505060405180910390a160019050919050565b60068054600181600116156101000203166002900480601f01602080910402602001604051908101604052809291908181526020018280546001816001161561010002031660029004801561185c5780601f106118315761010080835404028352916020019161185c565b820191906000526020600020905b81548152906001019060200180831161183f57829003601f168201915b505050505081565b600760009054906101000a900473ffffffffffffffffffffffffffffffffffffffff1673ffffffffffffffffffffffffffffffffffffffff163373ffffffffffffffffffffffffffffffffffffffff161415156118c057600080fd5b80601160006101000a81548173ffffffffffffffffffffffffffffffffffffffff021916908373ffffffffffffffffffffffffffffffffffffffff16021790555050565b600061190e611bce565b801561191b5750600f5442115b151561192657600080fd5b600160003373ffffffffffffffffffffffffffffffffffffffff1673ffffffffffffffffffffffffffffffffffffffff1681526020019081526020016000205490506000600160003373ffffffffffffffffffffffffffffffffffffffff1673ffffffffffffffffffffffffffffffffffffffff16815260200190815260200160002081905550601573__CoinQueueLib2_________________________631189dab390913384601160009054906101000a900473ffffffffffffffffffffffffffffffffffffffff166040518563ffffffff167c0100000000000000000000000000000000000000000000000000000000028152600401808581526020018473ffffffffffffffffffffffffffffffffffffffff1673ffffffffffffffffffffffffffffffffffffffff1681526020018381526020018273ffffffffffffffffffffffffffffffffffffffff1673ffffffffffffffffffffffffffffffffffffffff16815260200194505050505060206040518083038186803b158015611aad57600080fd5b505af4158015611ac1573d6000803e3d6000fd5b505050506040513d6020811015611ad757600080fd5b81019080805190602001909291905050501515611af357600080fd5b3373ffffffffffffffffffffffffffffffffffffffff166108fc60095483811515611b1a57fe5b049081150290604051600060405180830381858888f19350505050158015611b46573d6000803e3d6000fd5b5050565b6000611b54611bce565b8015611b615750600f5442115b1515611b6c57600080fd5b600b600081548092919060010191905055506001905090565b6000600160008373ffffffffffffffffffffffffffffffffffffffff1673ffffffffffffffffffffffffffffffffffffffff168152602001908152602001600020549050919050565b6000600a546009541015905090565b60058054600181600116156101000203166002900480601f016020809104026020016040519081016040528092919081815260200182805460018160011615610100020316600290048015611c735780601f10611c4857610100808354040283529160200191611c73565b820191906000526020600020905b815481529060010190602001808311611c5657829003601f168201915b505050505081565b600060036004811115611c8a57fe5b601c60008473ffffffffffffffffffffffffffffffffffffffff1673ffffffffffffffffffffffffffffffffffffffff16815260200190815260200160002060030160009054906101000a900460ff166004811115611ce557fe5b141515611cf157600080fd5b6004601c60008473ffffffffffffffffffffffffffffffffffffffff1673ffffffffffffffffffffffffffffffffffffffff16815260200190815260200160002060030160006101000a81548160ff02191690836004811115611d5057fe5b02179055507f2ede3ac351c71eef2c08079e7a98ae331342822768bb2ec7818b11a8e87cd18382604051808273ffffffffffffffffffffffffffffffffffffffff1673ffffffffffffffffffffffffffffffffffffffff16815260200191505060405180910390a160019050919050565b600081600160003373ffffffffffffffffffffffffffffffffffffffff1673ffffffffffffffffffffffffffffffffffffffff1681526020019081526020016000205410151515611e1157600080fd5b81600160003373ffffffffffffffffffffffffffffffffffffffff1673ffffffffffffffffffffffffffffffffffffffff1681526020019081526020016000206000828254039250508190555081600160008573ffffffffffffffffffffffffffffffffffffffff1673ffffffffffffffffffffffffffffffffffffffff168152602001908152602001600020600082825401925050819055508273ffffffffffffffffffffffffffffffffffffffff163373ffffffffffffffffffffffffffffffffffffffff167fddf252ad1be2c89b69c2b068fc378daa952ba7f163c4a11628f55a4df523b3ef846040518082815260200191505060405180910390a36001905092915050565b600f5481565b600082600260003373ffffffffffffffffffffffffffffffffffffffff1673ffffffffffffffffffffffffffffffffffffffff16815260200190815260200160002060008673ffffffffffffffffffffffffffffffffffffffff1673ffffffffffffffffffffffffffffffffffffffff168152602001908152602001600020819055508373ffffffffffffffffffffffffffffffffffffffff163373ffffffffffffffffffffffffffffffffffffffff167f8c5be1e5ebec7d5bd14f71427d1e84f3dd0314c0f7b2291e5b200ac8c7c3b925856040518082815260200191505060405180910390a38373ffffffffffffffffffffffffffffffffffffffff1660405180807f72656365697665417070726f76616c28616464726573732c75696e743235362c81526020017f616464726573732c627974657329000000000000000000000000000000000000815250602e01905060405180910390207c01000000000000000000000000000000000000000000000000000000009004338530866040518563ffffffff167c0100000000000000000000000000000000000000000000000000000000028152600401808573ffffffffffffffffffffffffffffffffffffffff1673ffffffffffffffffffffffffffffffffffffffff1681526020018481526020018373ffffffffffffffffffffffffffffffffffffffff1673ffffffffffffffffffffffffffffffffffffffff168152602001828051906020019080838360005b83811015612161578082015181840152602081019050612146565b50505050905090810190601f16801561218e5780820380516001836020036101000a031916815260200191505b509450505050506000604051808303816000875af19250505015156121b257600080fd5b600190509392505050565b600080600080600080600e54600f54036402540be400600e5442030289028115156121e457fe5b049250600a54600a600954028115156121f957fe5b0487028389020167028f5c28f5c28f60027fffffffffffffffffffffffffffffffffffffffffffffffffffffffffffffffff02915068010000000000000000670de0b6b3a76400008373__Math__________________________________63e46751e390916040518263ffffffff167c01000000000000000000000000000000000000000000000000000000000281526004018082815260200191505060206040518083038186803b1580156122ae57600080fd5b505af41580156122c2573d6000803e3d6000fd5b505050506040513d60208110156122d857600080fd5b8101908080519060200190929190505050028115156122f357fe5b0490508183829550955095505050509250925092565b600e5481565b6000600260008473ffffffffffffffffffffffffffffffffffffffff1673ffffffffffffffffffffffffffffffffffffffff16815260200190815260200160002060008373ffffffffffffffffffffffffffffffffffffffff1673ffffffffffffffffffffffffffffffffffffffff16815260200190815260200160002054905092915050565b6000806000601d60008581526020019081526020016000205491506007828115156123bd57fe5b04915081600a548115156123cd57fe5b0490508092505050919050565b6000601c60008373ffffffffffffffffffffffffffffffffffffffff1673ffffffffffffffffffffffffffffffffffffffff168152602001908152602001600020600101549050919050565b60006002600481111561243557fe5b601c60008473ffffffffffffffffffffffffffffffffffffffff1673ffffffffffffffffffffffffffffffffffffffff16815260200190815260200160002060030160009054906101000a900460ff16600481111561249057fe5b14151561249c57600080fd5b6003601c60008473ffffffffffffffffffffffffffffffffffffffff1673ffffffffffffffffffffffffffffffffffffffff16815260200190815260200160002060030160006101000a81548160ff021916908360048111156124fb57fe5b02179055507f1fc44c2b44927a36b98c2262da2b66a43bf6395e97a25719577b1bbfa7f279d482604051808273ffffffffffffffffffffffffffffffffffffffff1673ffffffffffffffffffffffffffffffffffffffff16815260200191505060405180910390a160019050919050565b828054600181600116156101000203166002900490600052602060002090601f016020900481019282601f106125ad57805160ff19168380011785556125db565b828001600101855582156125db579182015b828111156125da5782518255916020019190600101906125bf565b5b5090506125e891906125ec565b5090565b61260e91905b8082111561260a5760008160009055506001016125f2565b5090565b905600a165627a7a723058209ad04dbca8b43a6216cf8736e7072a01fe1ff5fb8c5322d2672373c1cd93b1740029",
  "source": "pragma solidity ^0.4.15;\n\nimport \"./CoinQueueLib2.sol\";\nimport \"./CoinDistLib.sol\";\nimport \"tokens/HumanStandardToken.sol\";\nimport \"./Math.sol\";\ncontract Coin is HumanStandardToken {\n  using CoinQueueLib2 for CoinQueueLib2.CoinQueue;\n  using Math for *;\n  address authorAddress;\n  uint customershipStake;\n  uint balance;\n  uint goal;\n  uint setEligible;\n  uint userCount;\n  uint eligibleCount;\n  uint public startdate;\n  uint public enddate;\n  uint gasSaved;\n  address public StatisticsTree;\n  uint weightCoefficient;\n  uint weightCoefficient2;\n  address Deployer;\n  CoinQueueLib2.CoinQueue queue;\n\n  function Coin\n    (\n     address _authorAddress,\n     //bytes metadata,\n     uint _customershipStake,\n     uint _goal,\n     //uint _toBeShipped,\n     //uint _userCount,\n     uint _eligibleCount,\n     uint _initialAmount,\n     string _tokenName,\n     uint8 _decimalUnits,\n     uint _startdate,\n     uint _enddate,\n     string _tokenSymbol,\n     uint _weightCoefficient,\n     uint _weightCoefficient2\n     )\n    HumanStandardToken(_initialAmount, _tokenName, _decimalUnits, _tokenSymbol,_authorAddress){\n    authorAddress = _authorAddress;\n    customershipStake = _customershipStake;\n    goal = _goal;\n  //  userCount = _userCount;\n    eligibleCount = _eligibleCount;\n    setEligible=0;\n    startdate=_startdate;\n    enddate=_enddate;\n    weightCoefficient=_weightCoefficient;\n    weightCoefficient2=_weightCoefficient2;\n    Deployer=msg.sender;\n  }\n\n  enum customerStatus { Waiting, Eligible, Requested, Shipped, Confirmed }\n\n  struct customer {\n    uint id;\n    uint points;\n    bytes customerUsername;      //customer's username\n    customerStatus status;\n\n  }\n\n  event BoughtCoin(address customer, uint amountPaid);\n  event GoalMet(bool success);\n  event NewQualifyingcustomers ();          //Some customers become eligible after goal is met\n  event CoinRequested(address customer);    //customer claims Coin\n  event LogCoinShipped(address customer);   //Author sends shipping confirmation\n  event LogCoinConfirmed(address customer);   //Author sends shipping confirmation\n  mapping(uint=>bool) validPoints;\n  mapping (address => customer) customers;\n  mapping(uint=>uint) weeklysales;\n//  mapping(address=>uint) balances;\n  modifier goalMet {\n    require (goalReached()&&(now>enddate));\n    _;\n  }\n  modifier TimeValid {\n    require ((startdate>now)&&(enddate<now));\n    _;\n  }\n modifier isAuthor{\n   require(msg.sender==authorAddress);\n   _;\n }\n  function goalReached()\n   constant  returns (bool goalMet)\n  {\n    return balance >= goal;\n  }\n\n  function goalFailed()\n    returns (bool goalFailed)\n  {\n    return ((balance<goal)&&(now>enddate));\n  }\n  function setTreeAddress(address a) {\n    require(msg.sender==authorAddress);\n    StatisticsTree=a;\n  }\n  function buyCoin()\n    public\n    payable\n    returns(bool success){\n\n    // customer buys coins the first time\n    if (balances[msg.sender] == 0) {\n      // Add customer\n      customers[msg.sender] = customer({ id: userCount, customerUsername: 'Anonymous', status: customerStatus.Waiting,points:0 });\n      userCount++;\n\n      // Add the customer to the queue in the last position\n    }\n    uint Time=((now-startdate)*10000000000)/(enddate-startdate);\n    int weight=(-1*( 0x28f5c28f5c28f60*((int(weightCoefficient)*int(Time))+int(weightCoefficient2)*int(balance*10/goal) )));\n\n    balances[msg.sender] += msg.value;\n    uint _points=((weight.exp()*(msg.value))/0x10000000000000000);\n    customers[msg.sender].points+=_points;\n    if(balance<goal){\n      if(!queue.insertcustomer( msg.sender,_points,StatisticsTree)) revert();\n    }\n    if (goalReached()) {\n      if(!StatisticsTree.call(bytes4(keccak256(\"SetGoalReached()\")))) revert();\n      GoalMet(true);\n    }\n\n  //  queue.addToQueue(int(msg.value), msg.sender);\n\n    balance += msg.value;\n    weekSaleSum( msg.value);\n    return true;\n  }\n\n  function getPoints(address a) constant returns(uint){\n    return customers[a].points;\n  }\n\n  function weekSaleSum(uint value){\n  //  uint currentday=((now-start)/86400)%7;\n    uint currentweek=((now-startdate)/86400)/7;\n    weeklysales[currentweek]+=value;\n  }\n  function ETA(uint week)returns (uint){\n    uint temp= weeklysales[week];\n    temp=temp/7;\n    uint ETA=goal/temp;\n    return(ETA);\n  }\n  // Anyone can call this\n  // Idealy the author should as soon as the goal is met\n  function setFirstEligible()\n    goalMet\n    returns (bool success)\n  {\n\n    setEligible++;\n    //address first = queue.getFirstInLine();\n    //customers[first].status = customerStatus.Eligible;\n  //  queue.remove(first, int(balances[first]));\n    return true;\n  }\n  function addEligible(uint value) goalMet{\n  require(msg.sender==StatisticsTree);\n  require(setFirstEligible());\n  validPoints[value]=true;\n\n  }\n  //((Author)) withdraws the capital they earned through coin sales\n  function withdrawCapital()\n    goalMet\n    isAuthor {\n    authorAddress.transfer(balance);\n  }\n  /*function withdrawInvestment(){\n    uint temp=balances[msg.sender];\n    balances[msg.sender]=0;\n    queue.customerWithdraw(msg.sender,temp,StatisticsTree);\n    msg.sender.transfer(temp);\n\n  }\n  */\n  function CalculateWeight(uint w, uint w1) constant returns(int,uint,uint){\n  uint Time=w*((now-startdate)*10000000000)/(enddate-startdate);\n  int weight=-1*(  0x28f5c28f5c28f60*((int(w)*int(Time))+int(w1)*int((balance*10/goal)) ));\n\n  uint _points=((weight.exp()*(10**18))/0x10000000000000000);\n  return (weight,Time,_points);\n  }\n  function claimCoins()\n     goalMet\n  {\n    uint temp=balances[msg.sender];\n    balances[msg.sender]=0;\n    if(!queue.customerWithdraw(msg.sender,temp,StatisticsTree)) revert();\n    msg.sender.transfer((temp/balance));\n  }\n  //customers can claim hard copy after they become eligible\n  function requestDelivery (address customerAddress) returns (bool success) {\n    require(customers[customerAddress].status == customerStatus.Eligible);\n    customers[customerAddress].status = customerStatus.Requested;\n    CoinRequested(msg.sender);\n    return true;\n  }\n\n  function markShipped (address customer) returns (bool success) {\n    require(customers[customer].status == customerStatus.Requested);\n    customers[customer].status = customerStatus.Shipped;\n    LogCoinShipped(customer);\n    return true;\n  }\n\n  function confirmDelivery (address customer) returns (bool success) {\n    require(customers[customer].status == customerStatus.Shipped);\n    customers[customer].status = customerStatus.Confirmed;\n    LogCoinConfirmed(customer);\n    return true;\n  }\n\n}\n",
  "sourcePath": "/home/john/Documents/gitBranch/open-equity-frontend/contracts/Coin.sol",
  "compiler": {
    "name": "solc",
    "version": "0.4.24+commit.e67f0147.Emscripten.clang"
  },
  "schemaVersion": "2.0.1",
  "updatedAt": "2018-11-12T23:27:10.879Z"
}