{
  "contractName": "TreeDeployer",
  "abi": [
    {
      "constant": false,
      "inputs": [
        {
          "name": "Owner",
          "type": "address"
        },
        {
          "name": "eligible",
          "type": "uint256"
        }
      ],
      "name": "deployTree",
      "outputs": [],
      "payable": false,
      "stateMutability": "nonpayable",
      "type": "function"
    },
    {
      "constant": true,
      "inputs": [
        {
          "name": "creator",
          "type": "address"
        }
      ],
      "name": "getTreeLocation",
      "outputs": [
        {
          "name": "",
          "type": "address"
        }
      ],
      "payable": false,
      "stateMutability": "view",
      "type": "function"
    },
    {
      "constant": true,
      "inputs": [],
      "name": "getSender",
      "outputs": [
        {
          "name": "",
          "type": "address"
        }
      ],
      "payable": false,
      "stateMutability": "view",
      "type": "function"
    }
  ],
  "bytecode": "0x608060405234801561001057600080fd5b50611fde806100206000396000f300608060405260043610610057576000357c0100000000000000000000000000000000000000000000000000000000900463ffffffff1680631d9444071461005c5780635085e3c3146100df5780635e01eb5a1461012c575b600080fd5b34801561006857600080fd5b5061009d600480360381019080803573ffffffffffffffffffffffffffffffffffffffff169060200190929190505050610183565b604051808273ffffffffffffffffffffffffffffffffffffffff1673ffffffffffffffffffffffffffffffffffffffff16815260200191505060405180910390f35b3480156100eb57600080fd5b5061012a600480360381019080803573ffffffffffffffffffffffffffffffffffffffff169060200190929190803590602001909291905050506101ec565b005b34801561013857600080fd5b50610141610317565b604051808273ffffffffffffffffffffffffffffffffffffffff1673ffffffffffffffffffffffffffffffffffffffff16815260200191505060405180910390f35b6000600160008373ffffffffffffffffffffffffffffffffffffffff1673ffffffffffffffffffffffffffffffffffffffff16815260200190815260200160002060009054906101000a900473ffffffffffffffffffffffffffffffffffffffff169050919050565b600082826101f8610340565b808373ffffffffffffffffffffffffffffffffffffffff1673ffffffffffffffffffffffffffffffffffffffff16815260200182815260200192505050604051809103906000f080158015610251573d6000803e3d6000fd5b509050336000806101000a81548173ffffffffffffffffffffffffffffffffffffffff021916908373ffffffffffffffffffffffffffffffffffffffff16021790555080600160003373ffffffffffffffffffffffffffffffffffffffff1673ffffffffffffffffffffffffffffffffffffffff16815260200190815260200160002060006101000a81548173ffffffffffffffffffffffffffffffffffffffff021916908373ffffffffffffffffffffffffffffffffffffffff160217905550505050565b60008060009054906101000a900473ffffffffffffffffffffffffffffffffffffffff16905090565b604051611c6280610351833901905600608060405234801561001057600080fd5b50604051604080611c628339810180604052810190808051906020019092919080519060200190929190505050816000806101000a81548173ffffffffffffffffffffffffffffffffffffffff021916908373ffffffffffffffffffffffffffffffffffffffff1602179055506000600181905550806002819055506000600360006101000a81548160ff0219169083151502179055505050611baa806100b86000396000f300608060405260043610610128576000357c0100000000000000000000000000000000000000000000000000000000900463ffffffff16806306661abd1461012d57806321f0a7271461015857806337da8058146101995780633b5f24eb146101e857806341beb9971461022957806348da1532146102545780634cc82215146102995780635014a18e146102c657806354c8f46d146103075780635663263714610334578063598ac8f21461037557806366d5c8ed146103b657806377049457146103f757806390b5561d146104225780639f8537171461044f578063b37c191b14610490578063b754175b146104d1578063bdc0f93c146104e8578063d9269cb414610529578063e832fda31461056a578063e973b7ba146105ab578063fa2b579d146105ec575b600080fd5b34801561013957600080fd5b5061014261062d565b6040518082815260200191505060405180910390f35b34801561016457600080fd5b5061018360048036038101908080359060200190929190505050610688565b6040518082815260200191505060405180910390f35b3480156101a557600080fd5b506101ce60048036038101908080359060200190929190803590602001909291905050506106be565b604051808215151515815260200191505060405180910390f35b3480156101f457600080fd5b50610213600480360381019080803590602001909291905050506106ea565b6040518082815260200191505060405180910390f35b34801561023557600080fd5b5061023e61074a565b6040518082815260200191505060405180910390f35b34801561026057600080fd5b5061027f60048036038101908080359060200190929190505050610754565b604051808215151515815260200191505060405180910390f35b3480156102a557600080fd5b506102c460048036038101908080359060200190929190505050610781565b005b3480156102d257600080fd5b506102f16004803603810190808035906020019092919050505061089b565b6040518082815260200191505060405180910390f35b34801561031357600080fd5b50610332600480360381019080803590602001909291905050506108bb565b005b34801561034057600080fd5b5061035f60048036038101908080359060200190929190505050610a38565b6040518082815260200191505060405180910390f35b34801561038157600080fd5b506103a060048036038101908080359060200190929190505050610a58565b6040518082815260200191505060405180910390f35b3480156103c257600080fd5b506103e160048036038101908080359060200190929190505050610aba565b6040518082815260200191505060405180910390f35b34801561040357600080fd5b5061040c610aef565b6040518082815260200191505060405180910390f35b34801561042e57600080fd5b5061044d60048036038101908080359060200190929190505050610b00565b005b34801561045b57600080fd5b5061047a60048036038101908080359060200190929190505050610bb0565b6040518082815260200191505060405180910390f35b34801561049c57600080fd5b506104bb60048036038101908080359060200190929190505050610bd3565b6040518082815260200191505060405180910390f35b3480156104dd57600080fd5b506104e6610d47565b005b3480156104f457600080fd5b5061051360048036038101908080359060200190929190505050610dbf565b6040518082815260200191505060405180910390f35b34801561053557600080fd5b5061055460048036038101908080359060200190929190505050610ddf565b6040518082815260200191505060405180910390f35b34801561057657600080fd5b5061059560048036038101908080359060200190929190505050610e0c565b6040518082815260200191505060405180910390f35b3480156105b757600080fd5b506105d660048036038101908080359060200190929190505050610f5d565b6040518082815260200191505060405180910390f35b3480156105f857600080fd5b5061061760048036038101908080359060200190929190505050610f7d565b6040518082815260200191505060405180910390f35b6000806000600460008081526020019081526020016000209150600460008360000160006001151515158152602001908152602001600020548152602001908152602001600020905080600401548260050154019250505090565b60006004600083815260200190815260200160002060000160006001151515158152602001908152602001600020549050919050565b60008060006106cc85610bd3565b91506106d661062d565b905083600183830303109250505092915050565b6000806000806106f985610bd3565b92506004600086815260200190815260200160002060050154915061071c61062d565b905080600260648085020181151561073057fe5b04606485020181151561073f57fe5b049350505050919050565b6000600154905090565b60006004600083815260200190815260200160002060020160009054906101000a900460ff169050919050565b60008060009054906101000a900473ffffffffffffffffffffffffffffffffffffffff1673ffffffffffffffffffffffffffffffffffffffff163373ffffffffffffffffffffffffffffffffffffffff161415156107de57600080fd5b60046000838152602001908152602001600020905060008214156108135760008160050154141561080e57610897565b610826565b60008160040154141561082557610897565b5b60008160050154111561088c57806005016000815480929190600190039190505550600082141515610868578060040160008154809291906001900391905055505b61088781600101548260020160009054906101000a900460ff16610fa9565b610896565b61089582610fd4565b5b5b5050565b600060046000838152602001908152602001600020600101549050919050565b6000809054906101000a900473ffffffffffffffffffffffffffffffffffffffff1673ffffffffffffffffffffffffffffffffffffffff163373ffffffffffffffffffffffffffffffffffffffff1614151561091657600080fd5b60011515600360009054906101000a900460ff16151514151561093857600080fd5b60025461094482610bd3565b1115151561095157600080fd5b6000809054906101000a900473ffffffffffffffffffffffffffffffffffffffff1673ffffffffffffffffffffffffffffffffffffffff1660405180807f736574456c696769626c652875696e7432353629000000000000000000000000815250601401905060405180910390207c01000000000000000000000000000000000000000000000000000000009004826040518263ffffffff167c0100000000000000000000000000000000000000000000000000000000028152600401808281526020019150506000604051808303816000875af1925050501515610a3557600080fd5b50565b600060046000838152602001908152602001600020600501549050919050565b600080600080610a6785610bd3565b925060046000868152602001908152602001600020600501549150610a8a61062d565b90508060026103e880850201811515610a9f57fe5b046103e8850201811515610aaf57fe5b049350505050919050565b600060046000838152602001908152602001600020600001600080151515158152602001908152602001600020549050919050565b6000610afb6032610f7d565b905090565b6000809054906101000a900473ffffffffffffffffffffffffffffffffffffffff1673ffffffffffffffffffffffffffffffffffffffff163373ffffffffffffffffffffffffffffffffffffffff16141515610b5b57600080fd5b6000811415610b8f576004600082815260200190815260200160002060050160008154809291906001019190505550610bad565b60018060008282540192505081905550610bac600060018361114e565b5b50565b600060016004600084815260200190815260200160002060050154019050919050565b6000806000806000809350600086141515610d3e576004600080815260200190815260200160002060050154945060046000808152602001908152602001600020600001600060011515151581526020019081526020016000205492506004600084815260200190815260200160002091505b600a841015610d3d576001840193508583111515610cb65785831015610c73578160050154600101850194505b81600001600080151515158152602001908152602001600020549050600081141515610cb5576004600082815260200190815260200160002060040154850194505b5b85831415610cc357610d3d565b85831015610cfe5781600001600060011515151581526020019081526020016000205492506004600084815260200190815260200160002091505b85831115610d3857816000016000801515151581526020019081526020016000205492506004600084815260200190815260200160002091505b610c46565b5b50505050919050565b6000809054906101000a900473ffffffffffffffffffffffffffffffffffffffff1673ffffffffffffffffffffffffffffffffffffffff163373ffffffffffffffffffffffffffffffffffffffff16141515610da257600080fd5b6001600360006101000a81548160ff021916908315150217905550565b600060046000838152602001908152602001600020600401549050919050565b600080610dea61062d565b9050610e046103e8828502811515610dfe57fe5b04610e0c565b915050919050565b600080600080600080600080600060046000808152602001908152602001600020600501549750878a1015610e445760009850610f50565b878a03965060046000808152602001908152602001600020600001600060011515151581526020019081526020016000205495506004600087815260200190815260200160002094505b600115610f4f578460000160008015151515815260200190815260200160002054935060018560050154019250600084141515610ee65760046000858152602001908152602001600020915081600401549050610eeb565b600090505b80871015610efe57839550819450610f4a565b828101871015610f1057859850610f50565b8460000160006001151515158152602001908152602001600020549550600460008781526020019081526020016000209450828101870396505b610e8e565b5b5050505050505050919050565b600060046000838152602001908152602001600020600301549050919050565b600080610f8861062d565b9050610fa16064828502811515610f9b57fe5b04610e0c565b915050919050565b600082141515610fd057610fbc82611272565b610fc582611300565b610fcf8282611351565b5b5050565b600080600080600080600080600460008a81526020019081526020016000209750876001015496508760020160009054906101000a900460ff16955060046000888152602001908152602001600020945087600001600080151515158152602001908152602001600020549350876000016000600115151515815260200190815260200160002054925060008414801561106e5750600083145b156110aa576000856000016000881515151581526020019081526020016000208190555061109b896114d1565b6110a58787610fa9565b611143565b600084141580156110bc575060008314155b156110d1576110cc898585611570565b611142565b8284019150600460008381526020019081526020016000209050818560000160008815151515815260200190815260200160002081905550868160010181905550858160020160006101000a81548160ff021916908315150217905550611137896114d1565b6111418787610fa9565b5b5b505050505050505050565b60008060008060046000888152602001908152602001600020935083600001600087151515158152602001908152602001600020549250600083141561121157848460000160008815151515815260200190815260200160002081905550600460008681526020019081526020016000209150868260010181905550858260020160006101000a81548160ff021916908315150217905550600182600301819055506001826004018190555061120385611300565b61120c85611749565b611269565b8483141561125657600460008481526020019081526020016000206005016000815480929190600101919050555061124885611272565b61125185611300565b611268565b82851015905061126783828761114e565b5b5b50505050505050565b6000600460008381526020019081526020016000209050806005015460046000836000016000600115151515815260200190815260200160002054815260200190815260200160002060040154600460008460000160008015151515815260200190815260200160002054815260200190815260200160002060040154600101010181600401819055505050565b6000600460008381526020019081526020016000206001015490505b60008114151561134d5761132f81611272565b6004600082815260200190815260200160002060010154905061131c565b5050565b600080600080600080600080891415156114c65761136e89611848565b611377896118f3565b9650879550871561138b57600194506113af565b7fffffffffffffffffffffffffffffffffffffffffffffffffffffffffffffffff94505b6113b8896118f3565b93508460020284141561148657600460008a815260200190815260200160002092508260000160008915151515158152602001908152602001600020549150611400826118f3565b9050847fffffffffffffffffffffffffffffffffffffffffffffffffffffffffffffffff0281141561143857611437828915611975565b5b6114428989611975565b60008114151561148157600460008a8152602001908152602001600020925061148083600101548460020160009054906101000a900460ff16611351565b5b6114c5565b84871415156114c457600460008a815260200190815260200160002092506114c383600101548460020160009054906101000a900460ff16611351565b5b5b5b505050505050505050565b60006004600083815260200190815260200160002090506000816001018190555060008160020160006101000a81548160ff0219169083151502179055506000816000016000801515151581526020019081526020016000208190555060008160000160006001151515158152602001908152602001600020819055506000816004018190555060008160030181905550600081600501819055505050565b60008060008060008060008060006115878b611b28565b9850600460008a81526020019081526020016000209750876005015496506115ae89610fd4565b600460008d8152602001908152602001600020955085600101549450600460008681526020019081526020016000209350856003015492508560020160009054906101000a900460ff16915085600401549050856000016000600115151515815260200190815260200160002054995085600001600080151515158152602001908152602001600020549a50888460000160008415151515815260200190815260200160002081905550848860010181905550818860020160006101000a81548160ff021916908315150217905550856005015487820103886004018190555082886003018190555086886005018190555060008b1415156116e4578a886000016000801515151581526020019081526020016000208190555088600460008d8152602001908152602001600020600101819055505b60008a141515611729578988600001600060011515151581526020019081526020016000208190555088600460008c8152602001908152602001600020600101819055505b6117328c6114d1565b61173b89611300565b505050505050505050505050565b600080600080600061175a86611848565b6004600087815260200190815260200160002094508460010154935060008414151561184057611789846118f3565b92508460020160009054906101000a900460ff16915081156117cd577fffffffffffffffffffffffffffffffffffffffffffffffffffffffffffffffff90506117d2565b600190505b6002810283141561182a57807fffffffffffffffffffffffffffffffffffffffffffffffffffffffffffffffff02611809876118f3565b141561181a576118198683611975565b5b611825848315611975565b61183f565b60008314151561183e5761183d84611749565b5b5b5b505050505050565b60008060006004600085815260200190815260200160002092506004600084600001600080151515158152602001908152602001600020548152602001908152602001600020600301549150600460008460000160006001151515158152602001908152602001600020548152602001908152602001600020600301549050808211156118e0576001820183600301819055506118ed565b6001810183600301819055505b50505050565b6000806004600084815260200190815260200160002090506004600082600001600060011515151581526020019081526020016000205481526020019081526020016000206003015460046000836000016000801515151581526020019081526020016000205481526020019081526020016000206003015403915050919050565b600080600080600080600080600089159850600460008c815260200190815260200160002097508760020160009054906101000a900460ff169650876001015495508760000160008a1515151581526020019081526020016000205494506004600086815260200190815260200160002093508360000160008b151515158152602001908152602001600020549250600460008781526020019081526020016000209150600460008481526020019081526020016000209050848260000160008915151515815260200190815260200160002081905550868460020160006101000a81548160ff0219169083151502179055508584600101819055508a8460000160008c15151515815260200190815260200160002081905550848860010181905550898860020160006101000a81548160ff021916908315150217905550828860000160008b151515158152602001908152602001600020819055508a8160010181905550888160020160006101000a81548160ff021916908315150217905550611b008b611848565b611b0985611848565b611b128b611272565b611b1b85611272565b5050505050505050505050565b6000806004600084815260200190815260200160002060000160006001151515158152602001908152602001600020549050600081141515611b7457611b6d81611b28565b9150611b78565b8291505b509190505600a165627a7a723058205f0850eac1317469c7cb6c0d2a98f3387d520f9877f9473591ca44dccc30d3670029a165627a7a723058205ecfdd23fb7c63a919068f1d0decee33ef9a3d36d0f35945b4d8b95b91810bfe0029",
  "source": "pragma solidity ^0.4.15;\n\nimport \"./OrderStatisticsTree.sol\";\n\n\n\ncontract TreeDeployer{\naddress sender;\nmapping(address=>address) deployedAddresses;\n\nfunction deployTree(address Owner,uint eligible){\nOrderStatisticTree Tree= new OrderStatisticTree(Owner,eligible);\nsender=msg.sender;\ndeployedAddresses[msg.sender]=address(Tree);\n}\nfunction getTreeLocation(address creator)  constant returns(address){\n  return deployedAddresses[creator];\n}\nfunction getSender() constant returns(address){\n  return sender;\n}\n\n\n\n\n}\n",
  "sourcePath": "/home/jjj/Documents/OE/OpenEquity/contracts/TreeDeployer.sol",
  "compiler": {
    "name": "solc",
    "version": "0.4.24+commit.e67f0147.Emscripten.clang"
  },
  "schemaVersion": "2.0.1",
  "updatedAt": "2018-08-29T17:33:38.588Z"
}